{
  "_format": "hh-sol-artifact-1",
  "contractName": "Lottery",
  "sourceName": "contracts/Lottery.sol",
  "abi": [
    {
      "inputs": [
        {
          "internalType": "address",
          "name": "vrfCoordinator",
          "type": "address"
        },
        {
          "internalType": "address",
          "name": "linkToken",
          "type": "address"
        },
        {
          "internalType": "bytes32",
          "name": "vrfKeyHash",
          "type": "bytes32"
        },
        {
          "internalType": "uint256",
          "name": "vrfFee",
          "type": "uint256"
        }
      ],
      "stateMutability": "nonpayable",
      "type": "constructor"
    },
    {
      "anonymous": false,
      "inputs": [
        {
          "indexed": false,
          "internalType": "uint256",
          "name": "gameId",
          "type": "uint256"
        },
        {
          "indexed": false,
          "internalType": "address",
          "name": "winner",
          "type": "address"
        },
        {
          "indexed": false,
          "internalType": "bytes32",
          "name": "requestId",
          "type": "bytes32"
        }
      ],
      "name": "GameEnded",
      "type": "event"
    },
    {
      "anonymous": false,
      "inputs": [
        {
          "indexed": false,
          "internalType": "uint256",
          "name": "gameId",
          "type": "uint256"
        },
        {
          "indexed": false,
          "internalType": "uint8",
          "name": "maxPlayers",
          "type": "uint8"
        },
        {
          "indexed": false,
          "internalType": "uint256",
          "name": "entryFee",
          "type": "uint256"
        }
      ],
      "name": "GameStarted",
      "type": "event"
    },
    {
      "anonymous": false,
      "inputs": [
        {
          "indexed": true,
          "internalType": "address",
          "name": "previousOwner",
          "type": "address"
        },
        {
          "indexed": true,
          "internalType": "address",
          "name": "newOwner",
          "type": "address"
        }
      ],
      "name": "OwnershipTransferred",
      "type": "event"
    },
    {
      "anonymous": false,
      "inputs": [
        {
          "indexed": false,
          "internalType": "uint256",
          "name": "gameId",
          "type": "uint256"
        },
        {
          "indexed": false,
          "internalType": "address",
          "name": "player",
          "type": "address"
        }
      ],
      "name": "PlayerJoined",
      "type": "event"
    },
    {
      "inputs": [],
      "name": "enter",
      "outputs": [],
      "stateMutability": "payable",
      "type": "function"
    },
    {
      "inputs": [],
      "name": "gameId",
      "outputs": [
        {
          "internalType": "uint256",
          "name": "",
          "type": "uint256"
        }
      ],
      "stateMutability": "view",
      "type": "function"
    },
    {
      "inputs": [],
      "name": "gameStarted",
      "outputs": [
        {
          "internalType": "bool",
          "name": "",
          "type": "bool"
        }
      ],
      "stateMutability": "view",
      "type": "function"
    },
    {
      "inputs": [],
      "name": "getBalance",
      "outputs": [
        {
          "internalType": "uint256",
          "name": "",
          "type": "uint256"
        }
      ],
      "stateMutability": "view",
      "type": "function"
    },
    {
      "inputs": [],
      "name": "getRandomWinner",
      "outputs": [
        {
          "internalType": "bytes32",
          "name": "requestId",
          "type": "bytes32"
        }
      ],
      "stateMutability": "nonpayable",
      "type": "function"
    },
    {
      "inputs": [],
      "name": "joinGame",
      "outputs": [],
      "stateMutability": "payable",
      "type": "function"
    },
    {
      "inputs": [],
      "name": "owner",
      "outputs": [
        {
          "internalType": "address",
          "name": "",
          "type": "address"
        }
      ],
      "stateMutability": "view",
      "type": "function"
    },
    {
      "inputs": [
        {
          "internalType": "uint256",
          "name": "",
          "type": "uint256"
        }
      ],
      "name": "players",
      "outputs": [
        {
          "internalType": "address",
          "name": "",
          "type": "address"
        }
      ],
      "stateMutability": "view",
      "type": "function"
    },
    {
      "inputs": [
        {
          "internalType": "bytes32",
          "name": "requestId",
          "type": "bytes32"
        },
        {
          "internalType": "uint256",
          "name": "randomness",
          "type": "uint256"
        }
      ],
      "name": "rawFulfillRandomness",
      "outputs": [],
      "stateMutability": "nonpayable",
      "type": "function"
    },
    {
      "inputs": [],
      "name": "renounceOwnership",
      "outputs": [],
      "stateMutability": "nonpayable",
      "type": "function"
    },
    {
      "inputs": [
        {
          "internalType": "uint8",
          "name": "_maxPlayers",
          "type": "uint8"
        },
        {
          "internalType": "uint256",
          "name": "_entryFee",
          "type": "uint256"
        }
      ],
      "name": "startGame",
      "outputs": [],
      "stateMutability": "nonpayable",
      "type": "function"
    },
    {
      "inputs": [
        {
          "internalType": "address",
          "name": "newOwner",
          "type": "address"
        }
      ],
      "name": "transferOwnership",
      "outputs": [],
      "stateMutability": "nonpayable",
      "type": "function"
    }
  ],
  "bytecode": "0x60c06040523480156200001157600080fd5b5060405162001d0638038062001d0683398181016040528101906200003791906200020f565b83838173ffffffffffffffffffffffffffffffffffffffff1660a08173ffffffffffffffffffffffffffffffffffffffff1660601b815250508073ffffffffffffffffffffffffffffffffffffffff1660808173ffffffffffffffffffffffffffffffffffffffff1660601b815250505050620000c9620000bd620000fc60201b60201c565b6200010460201b60201c565b81600681905550806007819055506000600360016101000a81548160ff0219169083151502179055505050505062000311565b600033905090565b6000600160009054906101000a900473ffffffffffffffffffffffffffffffffffffffff16905081600160006101000a81548173ffffffffffffffffffffffffffffffffffffffff021916908373ffffffffffffffffffffffffffffffffffffffff1602179055508173ffffffffffffffffffffffffffffffffffffffff168173ffffffffffffffffffffffffffffffffffffffff167f8be0079c531659141344cd1fd0a4f28419497f9722a3daafe3b4186f6b6457e060405160405180910390a35050565b600081519050620001db81620002c3565b92915050565b600081519050620001f281620002dd565b92915050565b6000815190506200020981620002f7565b92915050565b600080600080608085870312156200022657600080fd5b60006200023687828801620001ca565b94505060206200024987828801620001ca565b93505060406200025c87828801620001e1565b92505060606200026f87828801620001f8565b91505092959194509250565b6000620002888262000299565b9050919050565b6000819050919050565b600073ffffffffffffffffffffffffffffffffffffffff82169050919050565b6000819050919050565b620002ce816200027b565b8114620002da57600080fd5b50565b620002e8816200028f565b8114620002f457600080fd5b50565b6200030281620002b9565b81146200030e57600080fd5b50565b60805160601c60a05160601c6119bb6200034b600039600081816104370152610a3501526000818161028801526109f901526119bb6000f3fe6080604052600436106100a75760003560e01c8063d4f77b1c11610064578063d4f77b1c14610198578063d7c81b55146101a2578063e849c38e146101cd578063e97dcb62146101f6578063f2fde38b14610200578063f71d96cb14610229576100a7565b806312065fe0146100ac5780635e123ce4146100d75780636694f1a514610102578063715018a61461012d5780638da5cb5b1461014457806394985ddd1461016f575b600080fd5b3480156100b857600080fd5b506100c1610266565b6040516100ce91906114a3565b60405180910390f35b3480156100e357600080fd5b506100ec61026e565b6040516100f991906112bf565b60405180910390f35b34801561010e57600080fd5b50610117610281565b60405161012491906112da565b60405180910390f35b34801561013957600080fd5b50610142610383565b005b34801561015057600080fd5b5061015961040b565b6040516101669190611266565b60405180910390f35b34801561017b57600080fd5b5061019660048036038101906101919190610f28565b610435565b005b6101a06104d1565b005b3480156101ae57600080fd5b506101b7610686565b6040516101c491906114a3565b60405180910390f35b3480156101d957600080fd5b506101f460048036038101906101ef9190610fb6565b61068c565b005b6101fe61080f565b005b34801561020c57600080fd5b5061022760048036038101906102229190610ed6565b6108be565b005b34801561023557600080fd5b50610250600480360381019061024b9190610f64565b6109b6565b60405161025d9190611266565b60405180910390f35b600047905090565b600360019054906101000a900460ff1681565b60006007547f000000000000000000000000000000000000000000000000000000000000000073ffffffffffffffffffffffffffffffffffffffff166370a08231306040518263ffffffff1660e01b81526004016102df9190611266565b60206040518083038186803b1580156102f757600080fd5b505afa15801561030b573d6000803e3d6000fd5b505050506040513d601f19601f8201168201806040525081019061032f9190610f8d565b1015610370576040517f08c379a000000000000000000000000000000000000000000000000000000000815260040161036790611423565b60405180910390fd5b61037e6006546007546109f5565b905090565b61038b610b54565b73ffffffffffffffffffffffffffffffffffffffff166103a961040b565b73ffffffffffffffffffffffffffffffffffffffff16146103ff576040517f08c379a00000000000000000000000000000000000000000000000000000000081526004016103f690611403565b60405180910390fd5b6104096000610b5c565b565b6000600160009054906101000a900473ffffffffffffffffffffffffffffffffffffffff16905090565b7f000000000000000000000000000000000000000000000000000000000000000073ffffffffffffffffffffffffffffffffffffffff163373ffffffffffffffffffffffffffffffffffffffff16146104c3576040517f08c379a00000000000000000000000000000000000000000000000000000000081526004016104ba90611443565b60405180910390fd5b6104cd8282610c22565b5050565b600360019054906101000a900460ff16610520576040517f08c379a000000000000000000000000000000000000000000000000000000000815260040161051790611383565b60405180910390fd5b6004543414610564576040517f08c379a000000000000000000000000000000000000000000000000000000000815260040161055b906113e3565b60405180910390fd5b600360009054906101000a900460ff1660ff16600280549050106105bd576040517f08c379a00000000000000000000000000000000000000000000000000000000081526004016105b490611363565b60405180910390fd5b6002339080600181540180825580915050600190039060005260206000200160009091909190916101000a81548173ffffffffffffffffffffffffffffffffffffffff021916908373ffffffffffffffffffffffffffffffffffffffff1602179055507f87969bc7faf902221a147b95ceba76e011c5efb0339a0a8ee7a2bb82d9cfbbd6600554336040516106539291906114be565b60405180910390a1600360009054906101000a900460ff1660ff16600280549050141561068457610682610281565b505b565b60055481565b610694610b54565b73ffffffffffffffffffffffffffffffffffffffff166106b261040b565b73ffffffffffffffffffffffffffffffffffffffff1614610708576040517f08c379a00000000000000000000000000000000000000000000000000000000081526004016106ff90611403565b60405180910390fd5b600360019054906101000a900460ff1615610758576040517f08c379a000000000000000000000000000000000000000000000000000000000815260040161074f90611483565b60405180910390fd5b600260006107669190610e1a565b81600360006101000a81548160ff021916908360ff1602179055506001600360016101000a81548160ff021916908315150217905550806004819055506001600560008282546107b6919061158d565b925050819055507f10a7675bf1b19b67834ca5a59866847fd31c62cdfc8e9466039e6b8e088e15ae600554600360009054906101000a900460ff166004546040516108039392919061151e565b60405180910390a15050565b662386f26fc10000341015610859576040517f08c379a000000000000000000000000000000000000000000000000000000000815260040161085090611463565b60405180910390fd5b6002339080600181540180825580915050600190039060005260206000200160009091909190916101000a81548173ffffffffffffffffffffffffffffffffffffffff021916908373ffffffffffffffffffffffffffffffffffffffff160217905550565b6108c6610b54565b73ffffffffffffffffffffffffffffffffffffffff166108e461040b565b73ffffffffffffffffffffffffffffffffffffffff161461093a576040517f08c379a000000000000000000000000000000000000000000000000000000000815260040161093190611403565b60405180910390fd5b600073ffffffffffffffffffffffffffffffffffffffff168173ffffffffffffffffffffffffffffffffffffffff1614156109aa576040517f08c379a00000000000000000000000000000000000000000000000000000000081526004016109a1906113a3565b60405180910390fd5b6109b381610b5c565b50565b600281815481106109c657600080fd5b906000526020600020016000915054906101000a900473ffffffffffffffffffffffffffffffffffffffff1681565b60007f000000000000000000000000000000000000000000000000000000000000000073ffffffffffffffffffffffffffffffffffffffff16634000aea07f000000000000000000000000000000000000000000000000000000000000000084866000604051602001610a699291906112f5565b6040516020818303038152906040526040518463ffffffff1660e01b8152600401610a9693929190611281565b602060405180830381600087803b158015610ab057600080fd5b505af1158015610ac4573d6000803e3d6000fd5b505050506040513d601f19601f82011682018060405250810190610ae89190610eff565b506000610b0a8460003060008089815260200190815260200160002054610dab565b9050600160008086815260200190815260200160002054610b2b919061158d565b60008086815260200190815260200160002081905550610b4b8482610de7565b91505092915050565b600033905090565b6000600160009054906101000a900473ffffffffffffffffffffffffffffffffffffffff16905081600160006101000a81548173ffffffffffffffffffffffffffffffffffffffff021916908373ffffffffffffffffffffffffffffffffffffffff1602179055508173ffffffffffffffffffffffffffffffffffffffff168173ffffffffffffffffffffffffffffffffffffffff167f8be0079c531659141344cd1fd0a4f28419497f9722a3daafe3b4186f6b6457e060405160405180910390a35050565b600060028054905082610c359190611689565b9050600060028281548110610c73577f4e487b7100000000000000000000000000000000000000000000000000000000600052603260045260246000fd5b9060005260206000200160009054906101000a900473ffffffffffffffffffffffffffffffffffffffff16905060008173ffffffffffffffffffffffffffffffffffffffff1647604051610cc690611251565b60006040518083038185875af1925050503d8060008114610d03576040519150601f19603f3d011682016040523d82523d6000602084013e610d08565b606091505b5050905080610d4c576040517f08c379a0000000000000000000000000000000000000000000000000000000008152600401610d43906113c3565b60405180910390fd5b7fd2da138ec4b828f6f1dd931eea0488e41e941f7cda657ad8f524ede8cb2c7ce06005548387604051610d81939291906114e7565b60405180910390a16000600360016101000a81548160ff0219169083151502179055505050505050565b600084848484604051602001610dc4949392919061131e565b6040516020818303038152906040528051906020012060001c9050949350505050565b60008282604051602001610dfc929190611225565b60405160208183030381529060405280519060200120905092915050565b5080546000825590600052602060002090810190610e389190610e3b565b50565b5b80821115610e54576000816000905550600101610e3c565b5090565b600081359050610e6781611912565b92915050565b600081519050610e7c81611929565b92915050565b600081359050610e9181611940565b92915050565b600081359050610ea681611957565b92915050565b600081519050610ebb81611957565b92915050565b600081359050610ed08161196e565b92915050565b600060208284031215610ee857600080fd5b6000610ef684828501610e58565b91505092915050565b600060208284031215610f1157600080fd5b6000610f1f84828501610e6d565b91505092915050565b60008060408385031215610f3b57600080fd5b6000610f4985828601610e82565b9250506020610f5a85828601610e97565b9150509250929050565b600060208284031215610f7657600080fd5b6000610f8484828501610e97565b91505092915050565b600060208284031215610f9f57600080fd5b6000610fad84828501610eac565b91505092915050565b60008060408385031215610fc957600080fd5b6000610fd785828601610ec1565b9250506020610fe885828601610e97565b9150509250929050565b610ffb816115e3565b82525050565b61100a816115f5565b82525050565b61101981611601565b82525050565b61103061102b82611601565b611675565b82525050565b600061104182611555565b61104b8185611560565b935061105b818560208601611642565b61106481611718565b840191505092915050565b600061107c600c8361157c565b915061108782611729565b602082019050919050565b600061109f601d8361157c565b91506110aa82611752565b602082019050919050565b60006110c260268361157c565b91506110cd8261177b565b604082019050919050565b60006110e560148361157c565b91506110f0826117ca565b602082019050919050565b600061110860238361157c565b9150611113826117f3565b604082019050919050565b600061112b60208361157c565b915061113682611842565b602082019050919050565b600061114e601f8361157c565b91506111598261186b565b602082019050919050565b6000611171601f8361157c565b915061117c82611894565b602082019050919050565b600061119460188361157c565b915061119f826118bd565b602082019050919050565b60006111b7600083611571565b91506111c2826118e6565b600082019050919050565b60006111da60198361157c565b91506111e5826118e9565b602082019050919050565b6111f98161162b565b82525050565b61121061120b8261162b565b61167f565b82525050565b61121f81611635565b82525050565b6000611231828561101f565b60208201915061124182846111ff565b6020820191508190509392505050565b600061125c826111aa565b9150819050919050565b600060208201905061127b6000830184610ff2565b92915050565b60006060820190506112966000830186610ff2565b6112a360208301856111f0565b81810360408301526112b58184611036565b9050949350505050565b60006020820190506112d46000830184611001565b92915050565b60006020820190506112ef6000830184611010565b92915050565b600060408201905061130a6000830185611010565b61131760208301846111f0565b9392505050565b60006080820190506113336000830187611010565b61134060208301866111f0565b61134d6040830185610ff2565b61135a60608301846111f0565b95945050505050565b6000602082019050818103600083015261137c8161106f565b9050919050565b6000602082019050818103600083015261139c81611092565b9050919050565b600060208201905081810360008301526113bc816110b5565b9050919050565b600060208201905081810360008301526113dc816110d8565b9050919050565b600060208201905081810360008301526113fc816110fb565b9050919050565b6000602082019050818103600083015261141c8161111e565b9050919050565b6000602082019050818103600083015261143c81611141565b9050919050565b6000602082019050818103600083015261145c81611164565b9050919050565b6000602082019050818103600083015261147c81611187565b9050919050565b6000602082019050818103600083015261149c816111cd565b9050919050565b60006020820190506114b860008301846111f0565b92915050565b60006040820190506114d360008301856111f0565b6114e06020830184610ff2565b9392505050565b60006060820190506114fc60008301866111f0565b6115096020830185610ff2565b6115166040830184611010565b949350505050565b600060608201905061153360008301866111f0565b6115406020830185611216565b61154d60408301846111f0565b949350505050565b600081519050919050565b600082825260208201905092915050565b600081905092915050565b600082825260208201905092915050565b60006115988261162b565b91506115a38361162b565b9250827fffffffffffffffffffffffffffffffffffffffffffffffffffffffffffffffff038211156115d8576115d76116ba565b5b828201905092915050565b60006115ee8261160b565b9050919050565b60008115159050919050565b6000819050919050565b600073ffffffffffffffffffffffffffffffffffffffff82169050919050565b6000819050919050565b600060ff82169050919050565b60005b83811015611660578082015181840152602081019050611645565b8381111561166f576000848401525b50505050565b6000819050919050565b6000819050919050565b60006116948261162b565b915061169f8361162b565b9250826116af576116ae6116e9565b5b828206905092915050565b7f4e487b7100000000000000000000000000000000000000000000000000000000600052601160045260246000fd5b7f4e487b7100000000000000000000000000000000000000000000000000000000600052601260045260246000fd5b6000601f19601f8301169050919050565b7f47616d652069732066756c6c0000000000000000000000000000000000000000600082015250565b7f47616d6520686173206e6f74206265656e207374617274656420796574000000600082015250565b7f4f776e61626c653a206e6577206f776e657220697320746865207a65726f206160008201527f6464726573730000000000000000000000000000000000000000000000000000602082015250565b7f4661696c656420746f2073656e64204574686572000000000000000000000000600082015250565b7f56616c75652073656e74206973206e6f7420657175616c20746f20656e74727960008201527f4665650000000000000000000000000000000000000000000000000000000000602082015250565b7f4f776e61626c653a2063616c6c6572206973206e6f7420746865206f776e6572600082015250565b7f4e6f7420656e6f756768204c494e4b20696e2074686520636f6e747261637400600082015250565b7f4f6e6c7920565246436f6f7264696e61746f722063616e2066756c66696c6c00600082015250565b7f4469646e27742070617920656e6f756768206574686572210000000000000000600082015250565b50565b7f47616d652069732063757272656e746c792072756e6e696e6700000000000000600082015250565b61191b816115e3565b811461192657600080fd5b50565b611932816115f5565b811461193d57600080fd5b50565b61194981611601565b811461195457600080fd5b50565b6119608161162b565b811461196b57600080fd5b50565b61197781611635565b811461198257600080fd5b5056fea264697066735822122088fd1d5d0ebd1b42c18892ecd68ac3b4ddc8632452958c7fbba1ee8004f333d864736f6c63430008040033",
  "linkReferences": {},
  "deployedLinkReferences": {}
}